:020000040800F2
:10000000E0D000205509000835090008370900082C
:100010003B0900083F0900084309000800000000F0
:100020000000000000000000000000004709000878
:100030004909000800000000E7E0000845DB00086F
:100040006F0900086F0900086F0900086F090008B0
:100050006F0900086F0900086F0900084D090008C2
:100060004F090008510900086F0900086F090008CE
:100070006F0900086F0900086F0900086F09000880
:100080006F0900086F0900086F0900086F09000870
:100090006F0900086F0900086F0900084B09000884
:1000A0006F0900086F0900086F0900086F09000850
:1000B0006F0900086F0900086F0900086F09000840
:1000C0006F0900086F0900086F0900086F09000830
:1000D0006F09000853330008D52F00086F09000886
:1000E0006F0900086F0900086F0900086F09000810
:1000F0006F0900086F0900086F0900086F09000800
:100100006F0900086F0900086F0900086F090008EF
:100110006F0900086F0900086F0900086F090008DF
:100120006F0900086F0900086F0900086F090008CF
:1001300000F002F800F062F80AA090E8000C824497
:100140008344AAF10107DA4501D100F057F8AFF274
:10015000090EBAE80F0013F0010F18BFFB1A43F0A5
:1001600001031847D0020100F00201000A444FF0D9
:10017000000C10F8013B13F0070408BF10F8014B06
:100180001D1108BF10F8015B641E05D010F8016B4B
:10019000641E01F8016BF9D113F0080F1EBF10F8AF
:1001A000014BAD1C0C1B09D16D1E58BF01F801CBD2
:1001B000FAD505E014F8016B01F8016B6D1EF9D555
:1001C0009142D6D37047000000230024002500266A
:1001D000103A28BF78C1FBD8520728BF30C148BFAA
:1001E0000B60704764290DF0558578290DF08E85D8
:1001F000002070471FB51FBD10B510BD0DF032FFB8
:100200001146FFF7F7FF00F029FB0DF050FF03B494
:10021000FFF7F2FF03BC03F03DF80000ADF5007DF1
:1002200000BF46E1002002F061FF05467FA80021E3
:1002300014230A46CDE9001008460CF0DAFC012D23
:1002400006D0022D75D0032D74D0042D73D10BE18F
:100250004FF4FA7102A80DF019FE1A208DF808006B
:100260005B208DF8090001208DF80A008DF80B0045
:100270008DF80C008DF80D008DF80E0080208DF8A3
:100280000F0001208DF8100008208DF811000120CA
:100290008DF812008DF813001A208DF8140031200B
:1002A0008DF8150001208DF8160003208DF8170039
:1002B0008DF8180080208DF8190001208DF81A00A3
:1002C00040208DF81B0001208DF81C0004208DF8C3
:1002D0001D0001208DF81E00FE480068012808D18D
:1002E000FD480DF041FD0446FB4902A80DF05BFD01
:1002F0002FE0F848006802282BD1F8480068012850
:100300001AD14FF4FA7102A80DF0C0FD0020F44993
:1003100008607FA84FF000014FF032030A46CDE994
:10032000001008460CF065FC0120EE49C1F894016C
:10033000BEE05AE07FE0B1E0EB480DF015FD044669
:10034000E94902A80DF02FFD002104F1160002AAD0
:100350001154002104F1170002AA115400208DF855
:100360000B008DF80C008DF80D008DF80E008DF847
:1003700013008DF816008DF81A008DF81C008DF80A
:100380001E001A2104F1180011545D21401C115463
:100390000021401C11541A21401C11544F21401CB3
:1003A00011540021401C1154401C83B2CF49D04845
:1003B00001F040FE01228021CC48001F01F0C8F866
:1003C00004F11E0081B2CA4801F059FE00254FF623
:1003D000FF7001F086FF7FA8002114230A46CDE9B3
:1003E000001008460CF005FC00BF4FF4FA71BA4843
:1003F0000DF02AFD4FF4FA71BB480DF025FD4FF4C6
:10040000FA71BC480DF020FD4FF4FA71BA480DF0B6
:100410001BFD00250020B14908604FF6FF7001F078
:1004200060FF7FA8002114230A46CDE9001008468A
:100430000CF0DFFB3CE0A7480068401EA5490860BF
:100440000846006808B90320086000254FF6FF70D1
:1004500001F047FF7FA8002114230A46CDE90010D0
:1004600008460CF0C6FB23E09A480068401C9949F6
:10047000086008460068042801D1012008600025B2
:100480004FF6FF7001F02DFF7FA8002114230A46CC
:10049000CDE9001008460CF0ACFB09E07FA8002174
:1004A00014230A46CDE9001008460CF0A2FB00BF59
:1004B00000BFB7E60EB500BFABE086480068012874
:1004C00004D0022842D003287DD17DE08BA01821E2
:1004D000CDE900108A48438802880A212D2002F0C5
:1004E00029FC88A20A21462002F057FC88A24FF47A
:1004F000AA71732002F051FC0020874908807648D9
:100500001821CDE900107E48438802883C210A204A
:1005100002F010FC78481821CDE900107848438893
:1005200002884FF4AA71D22002F004FC7BA24FF49F
:10053000B971732002F031FC02A8002114230A468D
:10054000CDE9001008460CF054FB61E076A01821BC
:10055000CDE900106A48438802880A210F2002F082
:10056000E9FB72A20A21282002F017FC73A24FF4C3
:10057000AA71732002F011FC68A24FF4B9717320C4
:1005800002F00BFC58481821CDE900105C48438864
:1005900002883C210A2002F0CDFB56481821CDE903
:1005A00000105748438802884FF4AA71D22002F005
:1005B000C1FB02A8002114230A46CDE90010084619
:1005C0000CF017FB24E019E05EA01821CDE9001023
:1005D0004B48438802880A21232002F0ABFB5AA231
:1005E0000A21462002F0D9FB02A8002114230A4662
:1005F000CDE9001008460CF0FCFA09E002A8002141
:1006000014230A46CDE9001008460CF0F2FA00BFA8
:1006100000BF52E70EB500BF12E04E48006808B9AF
:10062000012000E000204B49086002A84FF00001C3
:100630004FF4FA730A46CDE9001008460CF0D9FAD7
:10064000EBE7F0B58BB00446002700BF04F03CFE9A
:1006500002F0F5FE054640480068B5FBF0F630466E
:100660000DF08EFA03F03CF80AA809F0FBFC04F048
:10067000C9FE0AAA0121084605F063FA00BF00BFBF
:1006800000BF04F0B9FF074600BF04F0B2FD00BF91
:1006900032480078401C314908700846007801282B
:1006A00001D105F05FF900BF04F084FD00BF3846BA
:1006B00004F0A6FF00BF00BF00BF0AA8032100226C
:1006C0000592CDE906210890104680210C22244B8A
:1006D00048E00000000000205438002038000020CE
:1006E0009481214200802142483A00200448004081
:1006F0001C0002403C3C0020303E0020312E000017
:1007000030000020CCF5C2EBC4DAC8DD00000000E8
:10071000B8B4BACFCAFD20002C000020B4F2D3A197
:10072000C7EBB0B400000000322E0000B8B4BACF5E
:10073000CCF5C2EBC4DAC8DD00000000D7D6B7FBA9
:10074000CAFD0000332E0000B2CECAFDC9E8D6C3F0
:1007500000000000800122425C020108DC00002051
:10076000D00A0020CDE90132CDE903100620002394
:10077000AFF25F1259A100905B480AF0AAF80AA8EC
:10078000032100220592CDE90621089010464FF47E
:100790000061CC22554BCDE90132CDE90310052093
:1007A0000023AFF2EF2252A1009054480AF091F8D2
:1007B0000AA8032100220592CDE9062108901046DF
:1007C0004FF4007133224E4BCDE90132CDE90310D5
:1007D00004200023AFF2BB524AA100904C480AF01B
:1007E00078F80AA94B480BF081FD00BF00BF00BF9D
:1007F00004F002FF074600BF04F0FBFC00BF4648C0
:100800000078401E4449087008460078D0B905F0C9
:10081000EBF84248008800280BDD00BF04F0CAFC5A
:1008200000BF384604F0ECFE00BF00BF05F07CFDC1
:1008300011E000BF04F0BEFC00BF384604F0E0FE4B
:1008400000BF08E000BF04F0B5FC00BF384604F06C
:10085000D7FE00BF00BF00BF0BB0F0BD8AB048207C
:1008600002F0B2FC4FF4A06000F084F901F0A4FBA8
:1008700002F01CFC02F092FC0120294908604FF4B0
:10088000165002F01AFD4FF4E13002F07DFD4FF4F6
:10089000165002F027FB01F046FD09A804F018FFEE
:1008A00009A8032100220592CDE9062108901046EF
:1008B0004FF4007133221B4BCDE90132CDE9031017
:1008C00003200023AFF2852217A1009011480AF0FF
:1008D00000F809A805F0DFF900BFFEE76C65643198
:1008E000207461736B000000080A0020980D00203E
:1008F0006C636431207461736B000000D00C0020C5
:10090000602E00207072696E7431207461736B0008
:10091000982D002040010020DC000020A0000020D5
:100920009481214208020020737461727420746102
:10093000736B0000704700BFFEE700BFFEE700BF1B
:10094000FEE700BFFEE7704770477047704770478B
:10095000704700000948804709480047FEE7FEE766
:10096000FEE7FEE7FEE7FEE7FEE7FEE7FEE7FEE75F
:1009700004480549054A064B70470000730A000801
:1009800031010008E0C60020E0D00020E0C80020CF
:10099000E0C800200CB50020019000906C48006871
:1009A00040F480306A49086000BF6948006800F47C
:1009B000003000900198401C0190009818B90198EF
:1009C000B0F5A06FF1D16248006800F4003010B1BA
:1009D0000120009001E0002000900098012843D100
:1009E0005C48006840F010005A49086008460068FA
:1009F00020F0030008600846006840F0020008602C
:100A00005348406852494860084640684860084674
:100A1000406840F4806048600846406820F47C10DC
:100A200048600846406840F4E8104860084600689E
:100A300040F08070086000BF4548006800F000701A
:100A40000028F9D04248406820F00300404948603F
:100A50000846406840F00200486000BF3C484068DB
:100A600000F00C000828F9D10CBD10B5FFF792FF7B
:100A700010BD10B53648006840F0010034490860E8
:100A800008464068344908403149486008460068D3
:100A9000324908402E4908600846006820F480204A
:100AA00008600846406820F4FE0048604FF41F00CC
:100AB0008860FFF7DAFF4FF000602949086010BD39
:100AC00010B5002100200022214B5B6803F00C01CF
:100AD00021B1042906D0082928D107E0214B224C56
:100AE000236027E01F4B204C236023E0184B5B68FA
:100AF00003F47010164B5B6803F48032022303EB9F
:100B0000904022B9194B4343174C23600DE0104B22
:100B10005B6803F4003323B1144B4343124C23604E
:100B200003E0104B4343104C236003E00D4B0E4C8D
:100B3000236000BF00BF064B5B68C3F303130C4C7C
:100B4000E15C094B1B68CB40074C236010BD0000E3
:100B500000100240002002400000FFF8FFFFF6FEF8
:100B600008ED00E000127A000400002000093D00BA
:100B70000800002031490143314A1160704770B5C7
:100B8000002100230F22C47804B32D4C246804F400
:100B9000E064C4F5E064210AC1F10403CA4044786A
:100BA00004FA03F18478144021430901254C0678A6
:100BB000A155047804F01F050124AC4005786D119F
:100BC000AD0005F1E025C5F8004109E0047804F026
:100BD0001F050124AC401C4D0678761145F82640CF
:100BE00070BD1A4A0A400243154B1B1F1A6070471A
:100BF00039B1134A121D12680243114B1B1D1A60B2
:100C000006E00F4A121D126882430D4B1B1D1A602D
:100C10007047042808D14FF0E021096941F0040130
:100C20004FF0E022116107E04FF0E021096921F067
:100C300004014FF0E0221161704700000000FA0546
:100C40000CED00E000E400E080E100E080FFFF1F29
:100C500010B50446CC48844208D10121042000F09C
:100C60002DFB0021042000F029FB46E0C748844208
:100C700008D10121082000F021FB0021082000F00C
:100C80001DFB3AE0C248844208D10121102000F047
:100C900015FB0021102000F011FB2EE0BD4884421E
:100CA00008D10121202000F009FB0021202000F0C4
:100CB00005FB22E0B848844208D10121402000F021
:100CC000FDFA0021402000F0F9FA16E0B348844212
:100CD00008D10121802000F0F1FA0021802000F0ED
:100CE000EDFA0AE0AE48844207D10121801500F0F8
:100CF000E5FA0021A01500F0E1FA10BD10B50121C0
:100D0000084600F0DBFA0021012000F0D7FA10BD00
:100D10002DE9F04102460025002600200023002492
:100D2000002791F803C00CF00F0591F803C00CF0F8
:100D3000100CBCF1000F03D091F802C04CEA05057D
:100D400091F800C0BCF1000F31D0146800202BE0F6
:100D50004FF0010C0CFA00F3B1F800C00CEA0306E6
:100D60009E4220D183004FF00F0C0CFA03F7BC43D6
:100D700005FA03FC4CEA040491F803C0BCF1280F07
:100D800006D14FF0010C0CFA00FCC2F814C00AE0C6
:100D900091F803C0BCF1480F05D14FF0010C0CFADB
:100DA00000FCC2F810C0401C0828D1D31460B1F870
:100DB00000C0BCF1FF0F34DD546800202EE000F1CC
:100DC000080C4FF0010808FA0CF3B1F800C00CEA67
:100DD00003069E4221D183004FF00F0C0CFA03F75B
:100DE000BC4305FA03FC4CEA040491F803C0BCF1CF
:100DF000280F05D100F1080C08FA0CF8C2F814808D
:100E000091F803C0BCF1480F07D100F1080C4FF076
:100E1000010808FA0CF8C2F81080401C0828CED34C
:100E20005460BDE8F0814FF6FF71018002218170AE
:100E30000421C17070470246002093680B400BB13B
:100E4000012000E0002070470146886880B27047AA
:100E500002460020D3680B400BB1012000E00020C7
:100E600070470146C86880B27047016170474161B0
:100E700070470AB1016100E041617047C16070478D
:100E80004FF480320A4382618161826182698269A2
:100E9000704702460020434B18684FF68073184095
:100EA00040EA021008433F4B186070473E49C86152
:100EB0007047F0B50A46002300240021002500F009
:100EC0000046B6F1004F02D1364EF16901E0354ED1
:100ED0007168C0F3034583B200F44016B6F5401FB5
:100EE00008D121F070612F4E766826F070662D4F84
:100EF0007E6012E000F48016B6F5801F06D103264E
:100F000006FA05F4A14341F0706106E0460D360192
:100F100003FA06F6B14341F0706122B1460D360185
:100F200003FA06F6314300F00046B6F1004F02D155
:100F30001C4EF16101E01B4E7160F0BD30B5002226
:100F40008B071C0F0F2303FA04F2164B08338C1087
:100F500053F824309343134C08348D1044F8253053
:100F600023468C1053F824308C07240F00FA04F425
:100F700023430C4C08348D1044F8253030BD0A4909
:100F8000DC3108607047000000080140000C01409F
:100F9000001001400014014000180140001C0140F5
:100FA000002001400000014000002042DF480068AE
:100FB00040F00100DD49086008464068DC4908400F
:100FC000DA49486008460068DA490840D7490860AD
:100FD0000846006820F4802008600846406820F435
:100FE000FE0048604FF41F0088607047CF490968D1
:100FF00021F48031CD4A11601146096821F4802125
:101000001160B0F5803F03D0B0F5802F0ED106E01F
:10101000C649096841F48031C44A116007E0C349F8
:10102000096841F4A021C14A116000E000BF00BF7F
:10103000704710B501460022002300204A11012A02
:1010400002D1BA4C236806E0022A02D1B74C236AC7
:1010500001E0B64C636A01F01F02012494401C4079
:101060000CB1012000E0002010BD38B50020009038
:101070000024002500BF3120FFF7DBFF0546009864
:10108000401C00900098B0F5A06F01D0002DF2D068
:101090003120FFF7CEFF08B1012400E000242046F4
:1010A00038BD01460020A14A106820F0F80040EA4F
:1010B000C10010607047A0490860704702460020D8
:1010C0009A4B586820F47C1042EA01031843974B6E
:1010D0005860704798490866704701460020934A57
:1010E000506820F003000843506070478F48406804
:1010F00000F00C007047014600208C4A506820F038
:10110000F00008435060704701460020874A50684D
:1011100020F4E06008435060704701460020834A95
:10112000506820F4605040EAC1005060704729B117
:101130007E4A527A02437D4B5A7204E07B4A527ACD
:1011400082437A4B5A7270477B49D83108607047A6
:1011500001460020754A506820F440400843506022
:1011600070470021714A20321170704A82F82010B5
:10117000012802D004280AD104E001216B4A203260
:10118000117005E00521694A2032117000E000BFAE
:1011900000BF70476949086070476449096A0143A4
:1011A000624A11627047654944390860704730B53A
:1011B00000210022002400235C4D6D6805F00C0125
:1011C00021B1042905D0082923D105E05C4D056033
:1011D00022E05B4D05601FE0544D6D6805F4701210
:1011E000524D6D6805F48034022505EB92421CB91E
:1011F000544D554305600BE04C4D6D6805F40035CA
:101200001DB1504D5543056002E04D4D55430560FD
:1012100002E04B4D056000BF00BF444D6D6805F016
:10122000F0010909484D6B5C0568DD4045603F4DA4
:101230006D6805F4E061090A434D6B5C4568DD406B
:1012400085603A4D6D6805F46051C90A3E4D6B5C8E
:101250004568DD40C560354D6D6805F44041890B3A
:101260003A4D6B5CC568B5FBF3F5056130BD29B13E
:101270002E4A526902432D4B5A6104E02B4A5269AF
:1012800082432A4B5A61704729B1284A9269024326
:10129000264B9A6104E0254A92698243234B9A6166
:1012A000704729B1214AD2690243204BDA6104E038
:1012B0001E4AD26982431D4BDA61704729B11B4A2D
:1012C000D2680243194BDA6004E0184AD2688243BC
:1012D000164BDA60704729B1144A12690243134B66
:1012E0001A6104E0114A12698243104B1A61704777
:1012F00012494039086070470F49C86470470B496C
:10130000C87170470948406A40F0807007494862D8
:10131000704701460020054A92680A400AB1012040
:1013200000E00020704701498872704700100240B9
:101330000000FFF8FFFFF6FE000042428004424238
:1013400000127A0000093D0018000020280000204B
:1013500010B50446FB48844209D101218803FFF7F8
:10136000ADFF00214FF48040FFF7A8FF32E0F648C0
:10137000844209D101214804FFF7ADFF00214FF459
:101380000030FFF7A8FF25E0F048844209D1012191
:101390008804FFF7A0FF00214FF48020FFF79BFF98
:1013A00018E0EB48844209D10121C804FFF793FFFC
:1013B00000214FF40020FFF78EFF0BE0E548844248
:1013C00008D101210805FFF786FF00214FF48010A6
:1013D000FFF781FF10BD2DE9F04786B005460E46A8
:1013E0000024A24600BFA1460027B08900B100BF7B
:1013F0002F462C8A4CF6FF700440F08804432C8260
:10140000AC894EF6F3100440B088318908437189E5
:1014100008430443AC81AC8A4FF6FF400440B089D6
:101420000443AC8201A8FFF7C2FEC648874202D13E
:10143000DDF810A001E0DDF80CA0A88900F4004060
:1014400040B10AEBCA0000EB0A1031684900B0FB5A
:10145000F1F807E00AEBCA0000EB0A1031688900D6
:10146000B0FBF1F86420B8FBF0F00401200964211E
:1014700001FB1089A88900F4004040B1322000EB44
:10148000C900B0FBF1F000F00700044308E032208F
:1014900000EB09106421B0FBF1F000F00F000443F1
:1014A0002C8106B0BDE8F0874FF416510160002191
:1014B0008180C18001810C2141810021818170479F
:1014C00010B502460020108A4FF2FF0318400B8827
:1014D0004C8823438C882343CC88234318431082B1
:1014E00010BD0021018041808180C180704721B101
:1014F000828942F40052828104E082894DF6FF73B2
:101500001A4082817047F0B503460024002600256A
:10151000002040F66A17B94200D100BF1846C1F357
:10152000421401F01F06012707FA06F5012C01D12C
:101530000C3004E0022C01D1103000E014301AB15C
:1015400007682F43076002E00768AF430760F0BDFC
:101550001AB1838A0B43838202E0838A8B4383829E
:101560007047028A4FF6F0731A400282028A0A43D9
:101570000282704782894FF2FF731A40828182890A
:101580000A438281704721B1828942F0020282813E
:1015900004E082894FF6FD731A4082817047028A07
:1015A0004FF6DF731A400282028A0A4302827047B2
:1015B00021B1028A42F48042028204E0028A4BF6A0
:1015C000FF731A4002827047C1F30802828070479D
:1015D00001468888C0F308007047818941F0010105
:1015E00081817047028BD2B20283028B42EA0122D0
:1015F00002837047028B02F47F420283028B0A430C
:101600000283704721B1828A42F02002828204E084
:10161000828A4FF6DF731A408282704721B1828A34
:1016200042F01002828204E0828A4FF6EF731A4081
:101630008282704721B1828A42F00802828204E0ED
:10164000828A4FF6F7731A408282704721B18289ED
:1016500042F40042828103E08289C2F30E02828159
:10166000704721B1828A42F40062828204E0828A59
:101670004FF2FF731A4082827047828A4FF6FB73E3
:101680001A408282828A0A438282704721B1828A0A
:1016900042F00202828204E0828A4FF6FD731A4011
:1016A0008282704702460020B1F5007F00D100BF62
:1016B00013880B400BB1012000E00020704701F4BB
:1016C0000072B2F5007F00D100BFCA4302807047AC
:1016D00070B50246002400230025002040F66A165B
:1016E000B14200D100BFC1F3421501F01F03012632
:1016F00006FA03F3012D02D19689334006E0022D4C
:1017000002D1168A334001E0968A33400C1201263A
:1017100006FA04F41688344013B10CB1012000E03D
:10172000002070BD10B50022002340F66A14A142CB
:1017300000D100BF0A1201249440A3B2DC4304800C
:1017400010BD000000380140004400400048004047
:10175000004C00400050004030B943F2DB028100F1
:10176000A1F1C0410A6005E043F2D2028100A1F17B
:10177000C0410A606FF07042411C8900A1F1C04174
:101780000A608100A1F1C041C1F80421704710280E
:101790000AD118214FF020421166402151664FF0C6
:1017A000FC319166D16610E01821F74A11604021A2
:1017B0004FF02042C2F884104FF0FC31F24A083258
:1017C00011604FF02042C2F88C1070471820EE498B
:1017D0002031086000200906C1F8A4004FF0FC3059
:1017E000E94928310860091D0860091D0860704733
:1017F000D0E901121143C2681143026911434269E1
:10180000114382691143C2691143026A1143426A5A
:101810001143826A1143C26A1143026B1143026889
:101820009200A2F1C0421160816808290BD10168C1
:101830008900A1F1C041096841F0400201688900B6
:10184000A1F1C0410A60416B0968426B526841EAEC
:101850000211426B926841EA0221426B928941EA8D
:101860000241426B128A41EA0251426B127D41EA07
:101870000261426B926911430268521C9200A2F10C
:10188000C0421160C16AB1F5804F1BD1816B0968FC
:10189000826B526841EA0211826B926841EA02212E
:1018A000826B128A41EA0251826B127D41EA026127
:1018B000826B9269114302689200A2F1C042C2F8A1
:1018C000041107E06FF0704201688900A1F1C04186
:1018D000C1F80421704730B500210022002344687C
:1018E00044F0080485682C43C5682C4305692C43E3
:1018F000456944EA4524856944EA4531C469246858
:10190000C5696D6844EA0524C5692D8944EA054422
:10191000C5692D7B44EA0562046A2468056A6D681E
:1019200044EA0524056A2D8944EA0544056A2D7BAD
:1019300044EA05630468102C05D14FF02044216669
:10194000A266E36608E0904C21604FF02044C4F8A2
:1019500088208D4C0C34236030BD016841F01001AB
:10196000426841EA4221826841EA4231864A203295
:101970001160C1680968C268526841EA0221C26800
:10198000128941EA0241C268127B41EA02617E4A41
:1019900028321160016909680269526841EA02212E
:1019A0000269128941EA02410269127B41EA02613D
:1019B000754A2C321160416909684269526841EAEE
:1019C00002214269128941EA02414269127B41EADD
:1019D00002614FF02042C2F8B01070470021016050
:1019E0000221416000218160C1600161416181612A
:1019F000C16101624FF4805141624900816200215E
:101A0000C16201630F21426B1160426B5160FF2183
:101A1000426B91600F21426BD160426B1161426B4E
:101A200051610021426B91610F21826B1160826BC9
:101A30005160FF21826B91600F21826BD160826BBC
:101A40001161826B51610021826B9161704710219D
:101A50000160002141608160C1600161416181617B
:101A6000FC21C2691160C2695160C2699160C2699A
:101A7000D160026A1160026A5160026A9160026A72
:101A8000D16070470021016041608160FC21C26823
:101A90001160C2685160C2689160C268D160026919
:101AA000116002695160026991600269D160426906
:101AB000116042695160426991604269D16070472A
:101AC00051B18200A2F1C042126842F001038200CB
:101AD000A2F1C042136009E08200A2F1C042126884
:101AE0002A4B1A408300A3F1C0431A60704799B192
:101AF000102808D14FF02042126E42F004024FF03D
:101B000020431A661DE0204A126842F004024FF09A
:101B10002043C3F8802014E0102809D14FF0204260
:101B2000126E1A4BDB1E1A404FF020431A6608E073
:101B3000154A1268154BDB1E1A404FF02043C3F8BC
:101B40008020704748B110492031096841F00401F4
:101B50004FF02042C2F8A01009E00B49203109687B
:101B60000A4AD21E11404FF02042C2F8A01070471E
:101B7000B9B110280CD14FF02042126E42F0400251
:101B80004FF020431A661FE0800000A0FEFF0F0008
:101B9000724A126842F040024FF02043C3F880209E
:101BA00012E0102808D14FF02042126E6C4B1A4000
:101BB0004FF020431A6607E0684A1268684B1A40E3
:101BC0004FF02043C3F880207047014600201029C1
:101BD00003D14FF02042506F02E0604A1432106887
:101BE000704710B5F2B1102807D14FF020435B6E5B
:101BF0000B434FF02044636632E0B0F5807F08D19C
:101C0000564B1B1D1B680B434FF02044C4F8843017
:101C100026E0524B24331B680B434FF02044C4F89A
:101C2000A4301DE0102807D14FF020435B6E8B439A
:101C30004FF02044636613E0B0F5807F08D1474B36
:101C40001B1D1B688B434FF02044C4F8843007E011
:101C5000424B24331B688B434FF02044C4F8A4301C
:101C600010BD10B5024600200023102A03D14FF00A
:101C70002044636E09E0B2F5807F03D1374C241D08
:101C8000236802E0354C2434236803EA01040CB1D4
:101C9000012000E0002010BD102807D14FF02042A5
:101CA000526E8A434FF020435A6613E0B0F5807FAE
:101CB00008D12A4A121D12688A434FF02043C3F804
:101CC000842007E0254A243212688A434FF02043DB
:101CD000C3F8A420704770B50246002000230024FA
:101CE0000025102A03D14FF02046736E09E0B2F5AB
:101CF000807F03D1194E361D336802E0174E24361B
:101D0000336803EA010403EAD10514B10DB10120DF
:101D100000E0002070BD102808D14FF02042526E24
:101D200022EAD1024FF020435A6615E0B0F5807FD9
:101D300009D10A4A121D126822EAD1024FF020434B
:101D4000C3F8842008E0054A2432126822EAD1024E
:101D50004FF02043C3F8A42070470000800000A08B
:101D6000BFFF0F0001684FF6FE72114001600021B5
:101D7000016041608160C1608D49884208D18C4911
:101D80000839496841F00F01894A083A51608AE0F0
:101D900087491431884208D185490839496841F09A
:101DA000F001834A083A51607DE081492831884238
:101DB00008D17F490839496841F470617C4A083A82
:101DC000516070E07A493C31884208D1784908393D
:101DD000496841F47041764A083A516063E07449B9
:101DE0005031884208D172490839496841F470215C
:101DF0006F4A083A516056E06D496431884208D113
:101E00006B490839496841F47001694A083A5160E0
:101E100049E067497831884208D1654908394968FD
:101E200041F07061624A083A51603CE06149884281
:101E300006D1011F096841F00F01021F116032E055
:101E40005C491431884208D15A49091F096841F098
:101E5000F001584A121F116025E056492831884286
:101E600008D15449091F096841F47061514A121F91
:101E7000116018E04F493C31884208D14D49091F93
:101E8000096841F470414B4A121F11600BE0494947
:101E90005031884207D14749091F096841F4702130
:101EA000444A121F1160704710B50022026847F6BD
:101EB000F0739A430C6A8B6823430C6923434C6983
:101EC00023438C692343CC6923434C6A23438C6AA4
:101ED00023431A430260CB6843600B6883604B68FE
:101EE000C36010BD0021016041608160C16001617B
:101EF00041618161C161016241628162704721B1CA
:101F0000026842F00102026004E002684FF6FE73CC
:101F10001A40026070471AB103680B43036002E085
:101F200003688B430360704741607047014648680F
:101F300080B2704701460020002201F080531BB19F
:101F40001C4B083B1A6802E0194B083B1A6802EA6E
:101F500001030BB1012000E00020704700F0805128
:101F600019B11449091F086002E011490839486095
:101F7000704701460020002201F080531BB10D4B39
:101F8000083B1A6802E00A4B083B1A6802EA0103A0
:101F90000BB1012000E00020704700F0805119B122
:101FA0000449091F086002E0014908394860704788
:101FB000080002400804024008B501211020FFF784
:101FC00063F9FF20ADF8000010208DF80300032016
:101FD0008DF8020069460448FEF79AFEFF21024888
:101FE000FEF743FF08BD000000100140F0B58BB0C4
:101FF00007460C4615461E4601210846FFF737F9ED
:102000003846FFF7AFFE009401950020029003963A
:1020100004908020059000200690079008904FF4CF
:102020008050099000200A9069463846FFF73CFF2F
:102030000BB0F0BDF0B58BB007460C4615461E46FA
:1020400001210846FFF713F93846FFF78BFE00948D
:1020500001951020029003960020049080200590A6
:1020600000200690079008904FF4805009900020BF
:102070000A9069463846FFF717FF0BB0F0BD70B500
:1020800004460D4600212046FFF739FF2946204629
:10209000FFF74AFF01212046FFF731FF70BD000026
:1020A00008B501214FF4B070FFF7EEF84CF2337031
:1020B000ADF8000018208DF8030003208DF8020011
:1020C0006946FE48FEF724FE4FF68070ADF800002A
:1020D00018208DF8030003208DF802006946F848A7
:1020E000FEF716FE41F20100ADF8000018208DF851
:1020F000030003208DF802006946F248FEF708FE4F
:1021000008BD00B59DB001210802FFF7B0F801201D
:102110000790002008900F20099000200A900B9053
:102120000C900D9015200090019005200290002049
:10213000039004900590069006200E9000200F90CA
:102140001090102011900020129014901390159070
:1021500016904FF480501790002018904FF4804054
:10216000199000201A9007A81B90CDF870D00EA8E7
:10217000FFF73EFB01210620FFF7A2FC1DB000BDCA
:102180004FF6FF7101EA0021CF4A118070474FF6E8
:10219000FF7101EA0021CC4A921C1180704710B5F2
:1021A00004460B462046FFF7EBFF1846FFF7EFFF0C
:1021B00010BD00F47F41C44A921C11804FF6FF719C
:1021C00001EA002111807047BF48801C008840EA66
:1021D000002080B2704700B5034673B93620FFF780
:1021E000CFFF0320FFF7D3FF4FF4C870B7494880F3
:1021F000F0200880002088710DE01620FFF7C0FF56
:102200006020FFF7C4FFF020B04948804FF4C87049
:1022100008800120887100BDF0B504460D461646C1
:102220000220FFF7ADFF2746E11704EB1161C1F370
:102230000F20FFF7ACFF0320FFF7A2FFE11704EB2D
:1022400011610912A4EB012188B2FFF7A0FF04205D
:10225000FFF796FF3746F11706EB1161C1F30F2028
:10226000FFF795FF0520FFF78BFFF11706EB1161D4
:102270000912A6EB012188B2FFF789FF0620FFF7BC
:102280007FFF2F46E91705EB1161C1F30F20FFF720
:102290007EFF0720FFF774FFE91705EB11610912B4
:1022A000A5EB012188B2FFF772FF0820FFF768FF56
:1022B0001F46D91703EB1161C1F30F20FFF767FF2A
:1022C0000920FFF75DFF1F46D91703EB11610912C3
:1022D000A3EB012188B2FFF75AFF2220FFF750FF3E
:1022E000F0BD70B5064679484088401E83B27748F5
:1022F0000088401E82B200210846FFF78DFF0024AF
:102300000CE0002504E03046FFF753FF681C85B25F
:102310006E484088A842F6DC601C84B26B48008896
:10232000A042EEDC70BD10B5FFF7BAFEFFF7E9FE84
:10233000322000F087FF0020FFF722FF6248801C58
:1023400000880012614988800846818860A00BF0EF
:102350004DFC02211A20FFF722FF88211B20FFF7E6
:102360001EFF06211C20FFF71AFF00212320FFF784
:1023700016FF7F212420FFF712FF1F212520FFF7E2
:102380000EFF03212D20FFF70AFF04211820FFF77D
:1023900006FF01211920FFF702FF00210120FFF7AE
:1023A000FEFE88211F20FFF7FAFE052000F04AFFFD
:1023B00080211F20FFF7F3FE052000F043FF90214E
:1023C0001F20FFF7ECFE052000F03CFFD0211F206E
:1023D000FFF7E5FE052000F035FF05211720FFF788
:1023E000DEFE13213620FFF7DAFE31212920FFF728
:1023F000D6FE1A217120FFF7D2FE00214020FFF700
:10240000CEFE45214120FFF7CAFE45214220FFF7BD
:10241000C6FE04214320FFF7C2FE00214420FFF73F
:10242000BEFE08214520FFF7BAFE23214620FFF714
:10243000B6FE23214720FFF7B2FE77214820FFF7A1
:10244000AEFE40214920FFF7AAFE04214A20FFF7F3
:10245000A6FE00214B20FFF7A2FE88214C20FFF7AB
:102460009EFE88214D20FFF79AFE88214E20FFF71F
:1024700096FE00210220FFF792FE00210320FFF7C5
:102480008EFE00210420FFF78AFEEF210520FFF7D2
:1024900086FE00210620FFF782FE00210720FFF7BD
:1024A0007EFE01210820FFF77AFEAF210920FFF709
:1024B00076FE38212820FFF772FE11E0001401405B
:1024C0000018014000200140FE07006C3000002091
:1024D000204C43442049443A25780D0A000000006E
:1024E000282000F0AFFE3F212820FFF758FE2220D1
:1024F000FFF746FE38212820FFF751FE282000F084
:10250000A1FE89211F20FFF74AFE282000F09AFE35
:1025100020212820FFF743FE282000F093FE002111
:102520001920FFF73CFE282000F08CFE0721182020
:10253000FFF735FE04210120FFF731FE04211820AA
:10254000FFF72DFE00210120FFF729FE04211820AE
:10255000FFF725FE01210846FFF721FE00210A2092
:10256000FFF71DFE20210B20FFF719FE00210C2094
:10257000FFF715FE3F210D20FFF711FE0421182063
:10258000FFF70DFE00210120FFF709FE07211820AB
:10259000FFF705FE05210120FFF701FE00210A20BB
:1025A000FFF7FDFD20210B20FFF7F9FD00210C2096
:1025B000FFF7F5FD3F210D20FFF7F1FD0421182065
:1025C000FFF7EDFD00210120FFF7E9FD382128206C
:1025D000FFF7E5FD282000F035FE89211F20FFF7D9
:1025E000DEFD282000F02EFE20212820FFF7D7FD59
:1025F000282000F027FE00211920FFF7D0FD05203C
:1026000000F020FE01211920FFF7C9FD88211F20BD
:10261000FFF7C5FD052000F015FE80211F20FFF704
:10262000BEFD052000F00EFE90211F20FFF7B7FD34
:10263000052000F007FED0211F20FFF7B0FD052088
:1026400000F000FE38212820FFF7A9FD282000F027
:10265000F9FD3C212820FFF7A2FD38212820FFF7B3
:102660009EFD282000F0EEFD89211F20FFF797FD39
:10267000282000F0E7FD20212820FFF790FD2820EA
:1026800000F0E0FD00211920FFF789FD052000F092
:10269000D9FD80210120FFF782FD00210120FFF7F5
:1026A0007EFD0A2000F0CEFD01211920FFF777FD05
:1026B00088211F20FFF773FD052000F0C3FD802156
:1026C0001F20FFF76CFD052000F0BCFD90211F20AE
:1026D000FFF765FD052000F0B5FDD0211F20FFF7B5
:1026E0005EFD052000F0AEFD38212820FFF757FDE4
:1026F000282000F0A7FD3C212820FFF750FD2220D4
:10270000FFF73EFD0020FFF766FD4FF6FF70FFF775
:10271000E8FD10BD2DE9F04304460D4616461F4660
:10272000DDF81C80B44201DCBD4201DDBDE8F08370
:102730003B46324629462046FFF76EFD301B401CC3
:1027400084B2781B401C85B20BE0A94602E04046EB
:10275000FFF72FFDB9F10000A9F101011FFA81F97E
:10276000F5D1201EA4F101018CB2EED100BFDDE74E
:1027700030B504460D462B46224629462046FFF733
:102780004BFDFC480088FFF714FD30BD70B50446D2
:102790000D4616462B46224629462046FFF73CFDAD
:1027A0003046FFF706FD70BD2DE9F04104460D46A9
:1027B00000260027B046F0480088A04203DDEE481E
:1027C0004088A84202DC0020BDE8F0812B4622466A
:1027D00029462046FFF720FD2220FFF7D1FCE748DD
:1027E0000688FFF7F1FC06463046EDE72DE9FF4F7E
:1027F00084B081468A460020039002900698A0EBA0
:1028000009050798A0EB0A06CDF80490CDF800A0C2
:10281000002D01DD012705E00DB9002702E04FF092
:10282000FF376D42002E02DD4FF0010806E016B9B9
:102830004FF0000802E04FF0FF387642B54201DD6C
:102840002C4600E034464FF0000B21E0009A91B294
:10285000019A90B2FFF78CFF0398284403900298E6
:10286000304402900398A04205DD0398001B0390BA
:102870000198384401900298A04205DD0298001B9F
:1028800002900098404400900BF101001FFA80FB79
:10289000601C8345DADD08B0BDE8F08F2DE9FF4FFD
:1028A00084B081468A460020029083460698A0EBB9
:1028B00009050798A0EB0A06CDF80490CDF800A012
:1028C000002D01DD012705E00DB9002702E04FF0E2
:1028D000FF376D42002E02DD4FF0010806E016B909
:1028E0004FF0000802E04FF0FF387642B54201DDBC
:1028F0002C4600E03446002003901EE0009A91B27E
:10290000019A90B2119AFFF741FF02982844029071
:10291000B3440298A04205DD0298001B0290019882
:1029200038440190A34504DDABEB040B0098404410
:1029300000900398401C80B20390611C0398884269
:10294000DCDD08B0BDE8F08FF0B504460D46174653
:1029500005F1010C1FFA8CF304F1010C1FFA8CF243
:10296000A5F1010C1FFA8CF1A4F1010C1FFA8CF0F7
:10297000FFF752FC002604E03846FFF71AFC701CF3
:10298000C6B2092EF8DB211D8AB2211F88B22B4660
:102990002946FFF741FC002604E03846FFF709FC12
:1029A000701CC6B2092EF8DB281D83B2281F81B225
:1029B00022462046FFF730FC002604E03846FFF7A9
:1029C000F8FB701CC6B2092EF8DBF0BDF0B504466A
:1029D0000D4616461F462B46324629462046FFF72F
:1029E00005FF3B46224629462046FFF7FFFE3B46B1
:1029F000324639462046FFF7F9FE3B463246294625
:102A00003046FFF7F3FEF0BD2DE9F04306460F46D2
:102A10009046002445460320A0EB48093CE07A1B81
:102A200091B2321990B2FFF7A3FE3A1B91B272191C
:102A300090B2FFF79DFE3A1991B2721990B2FFF76A
:102A400097FE7A1991B2321990B2FFF791FE7A1976
:102A500091B2321B90B2FFF78BFE3A1991B2721B02
:102A600090B2FFF785FE7A1B91B2321B90B2FFF74E
:102A70007FFE3A1B91B2721B90B2FFF779FE641C85
:102A8000B9F1000F03DAA000801D814404E0601B4F
:102A900080000A3081446D1EAC42C0DDBDE8F08389
:102AA0002DE9F84F80460E4617461C46B346204691
:102AB000E31704EB5373DB1021464FEAE47C04EB8D
:102AC0005C7C4FEAEC0CA4EBCC0CBCF1000F02D008
:102AD0004FF0010C01E04FF0000C6344224604EB80
:102AE000D27C4FEA6C0C03FB0CF3DBB20093A7F132
:102AF0002000C7B2002564E00C2C07D107EB47008B
:102B00001F4901EB800010F8059013E0102C05D14F
:102B10001C4800EB071010F805900BE0182C07D1AB
:102B200007EBC700184901EB800010F8059001E0A1
:102B3000BDE8F88F4FF0000A3DE009F0800030B1A9
:102B40000C48028831464046FFF720FE07E00A980D
:102B500028B90E48028831464046FFF717FE4FEA73
:102B600049604FEA1069701C86B203484088B04241
:102B70000EDCDDE72C000020300000200008006C97
:102B800048E10008BCE50008ACEB00082E0000207E
:102B9000A6EB0B00A0420AD15E4608F101001FFA25
:102BA00080F8CC480088404500DCC1E706E00AF127
:102BB000010000F0FF0ABAF1080FBEDB00BF681C7D
:102BC000C5B20098854297DB00BFB1E710B5024659
:102BD000012000E050430B1EA1F10104E1B2F9D144
:102BE00010BD2DE9FF4F81B0074691461E460E9D50
:102BF0004FF0000A002439E0301B401EC1B20A2009
:102C0000FFF7E4FFB9FBF0F00A21B0FBF1F201FBA2
:102C10001208BAF1000F16D1701EA04213DDB8F1F0
:102C2000000F0ED10020AB4605EBDB71491001FB14
:102C30000471009088B22B4620220299FFF730FFE2
:102C400012E04FF0010A0020AB4605EBDB714910A2
:102C500001FB0471009088B208F13001CAB22B4622
:102C60000299FFF71DFF00BF601CC4B2B442C3DB72
:102C700005B0BDE8F08F2DE9FF4F82B006469246C1
:102C80001F46DDE90F480020019000254DE0781B2C
:102C9000401EC1B20A20FFF799FFBAFBF0F00A21EB
:102CA000B0FBF1F201FB1209019850BB781EA8425B
:102CB00027DDB9F1000F22D108F0800078B108F0CB
:102CC0000100A34604EBDB71491001FB0561009094
:102CD00088B2234630220399FFF7E2FE0EE008F0A7
:102CE0000100A34604EBDB71491001FB0561009074
:102CF00088B2234620220399FFF7D2FE13E0012079
:102D0000019008F00100A34604EBDB71491001FBC0
:102D10000561009088B209F13001CAB223460399D7
:102D2000FFF7BEFE00BF681CC5B2BD42AFDB06B0F8
:102D3000BDE8F08F2DE9F84704460D4690469946C8
:102D4000DDE9096704F0FF0A08EB04001FFA80F8C8
:102D500009EB05001FFA80F916E0444502DB5446F2
:102D6000A81985B24D4500DB14E0002000903A78A8
:102D7000334629462046FFF793FE304606EBD071D6
:102D800004EB61018CB27F1C38787E2802DC387835
:102D90002028E2DA00BFBDE8F8872DE9F84F0446A5
:102DA0000F461546A346009760E0002657E006EB65
:102DB0008600C0EB8610484911F810002978884237
:102DC0004BD106EB8600C0EB8610434901EB400077
:102DD00040786978884240D14FF000083AE006EB2D
:102DE0008600C0EB86103C4901EB4000801C10F8C7
:102DF00008A04FF0000926E00AF08000802806D1E4
:102E00003648028839462046FFF7C0FC05E03448C2
:102E1000028839462046FFF7B9FC4FF6FF7000EAFA
:102E20004A0A601C84B2A4EB0B00202807D15C4640
:102E3000781C87B20098381A1D2800D1009F09F12C
:102E4000010000F0FF09B9F1080FD5DB08F101001E
:102E500000F0FF08B8F1740FC1DB701CC6B2142E6D
:102E6000A5DBAD1C04F1200084B2A346287800281D
:102E70009BD1BDE8F88F2DE9F04F80468946154675
:102E80001E46DDF824A000270024A34609EB060017
:102E9000401E83B208EB0500401E82B24946404600
:102EA000FFF7BAF905FB06F04FEA400B00BF601CC4
:102EB0001AF800704FF6FF7000EA07271AF80400AE
:102EC00007433846FFF775F9A41C5C45EFDBBDE806
:102ED000F08F00003000002008F900082C000020CE
:102EE0002E00002010B586B0044601214FF48270F8
:102EF000FEF7CAF901214804FEF7D3F90420ADF822
:102F0000140018208DF8170003208DF8160005A96D
:102F10005948FDF7FDFE0820ADF8140004208DF897
:102F2000170003208DF8160005A95348FDF7F0FEA1
:102F30000820ADF8140010208DF8170003208DF83C
:102F4000160005A94D48FDF7E3FE01940020ADF8F9
:102F50000800ADF80A00ADF80C00ADF810000C2028
:102F6000ADF80E0001A94648FEF735FA01214448A4
:102F7000FEF7BDFA40214248FEF7A1FB012240F2D4
:102F800024413F48FEF7BFFA26208DF800000320B9
:102F90008DF8010002208DF8020001208DF8030059
:102FA0006846FDF7ECFD4FF4FA73364A3449091DC3
:102FB0003548FFF71BF8012240213148FEF7C8FAD7
:102FC0004FF4FA713048FFF75AF800202F49086093
:102FD00006B010BD38B500255F20009002F00EFC51
:102FE00040F224412648FEF773FB002840D02848D1
:102FF0000068401C264908604FF6FF70FFF771F922
:103000004FF4FA7123480AF01FFF4FF4FA721D497A
:1030100020480AF0D4FE1F491F480AF0C4FE694642
:103020001D480AF0C0FE1A481CA102681C480AF09C
:10303000E9FD19480AF098FE441E224617A11948D6
:103040000AF0E0FD4FF4FA710E480AF0FDFE01228D
:1030500040210B48FEF77CFA4FF4FA710A48FFF75B
:103060000EF811480088C5B20548001D0088C5B299
:1030700002F0D5FB38BD00000008014000200140EF
:1030800000440040603600206C0002408C01244265
:103090003800002054380020483A00202564000001
:1030A000303E00203C3C00200038014008B50121A2
:1030B0004420FEF7E9F80120ADF8000028208DF843
:1030C000030003208DF8020069462F48FDF720FE1B
:1030D0001C20ADF8000048208DF8030003208DF877
:1030E000020069462948FDF713FE08BD3EB50446B7
:1030F0002748007801282CD12648006801280AD0EA
:103100002548006838B12448001F006818B12248DB
:10311000001D0068E8B902A8002114230A46CDE981
:103120000010084609F065FD00201949087019488B
:103130000068012800D13EBD1748006808B9022088
:10314000F9E71548001F006808B90320F3E70420D9
:10315000F1E71048006878B90F48006801280BD1E2
:103160000D48001F0068012806D10B48001D0068AB
:10317000012801D106490870012C02D1012004491F
:1031800008700020D7E70000000801400018014047
:103190003C000020000121420C01234208B501211E
:1031A0000820FEF771F82020ADF8000010208DF8FF
:1031B000030003208DF8020069460248FDF7A8FDD0
:1031C00008BD0000000C014010B504466FF004007B
:1031D000FDF71FFDE11704EB5171C1F3C7012B4A45
:1031E00011701046007800EB4001C1EBC0104FF6A3
:1031F000FF7101EAC0002649088010BD0146234A3C
:1032000012784A434FF0E0235A6100229A611A462D
:10321000126942F001021A6100BF4FF0E02210690A
:1032200000F001021AB100F48032002AF5D04FF00C
:10323000E022126922F001024FF0E0231A6100221D
:103240009A6170470146124A12884A434FF0E023C0
:103250005A6100229A611A46126942F001021A610B
:1032600000BF4FF0E022106900F001021AB100F433
:103270008032002AF5D04FF0E022126922F00102DC
:103280004FF0E0231A6100229A6170473E0000204F
:1032900040000020014600BF704770B504460D464F
:1032A000E1B26248FEF790F900BF80215F48FEF767
:1032B000F9F90028F9D0204670BD10B586B0044653
:1032C000012144F20400FDF7DFFF4FF40070ADF878
:1032D000140003208DF8160018208DF8170005A99A
:1032E0005348FDF715FD4FF48060ADF8140004203D
:1032F0008DF8170005A94E48FDF70AFD25208DF829
:10330000000003208DF801008DF8020001208DF8E7
:1033100003006846FDF733FC01940020ADF8080077
:10332000ADF80A00ADF80C00ADF810000C20ADF8B7
:103330000E0001A93D48FEF74EF8012240F225514A
:103340003A48FEF7E0F801213848FEF7D0F806B019
:1033500010BD10B540F225513448FEF7B9F970B1EF
:103360003248FEF735F9C4B221463048FEF72CF951
:1033700000BF40212D48FEF795F90128F9D14021E1
:103380002A48FEF79CF910BD10B586B0044601210D
:103390000820FDF779FF01218804FDF782FF4FF433
:1033A0000060ADF8000004208DF803006946214854
:1033B000FDF7AEFC4FF48060ADF8000003208DF8FF
:1033C000020018208DF8030069461A48FDF7A0FC9A
:1033D00002940020ADF80C00ADF80E00ADF810001E
:1033E000ADF814000C20ADF8120002A91248FDF748
:1033F000F2FF012240F225510F48FEF784F8012127
:103400000D48FEF774F84FF4E060FDF7B3FB27209A
:103410008DF8040000208DF8060001208DF80700CB
:1034200001A8FDF7ACFB06B010BD0000003801405C
:1034300000080140000C014000480040704700B502
:1034400085B06846FDF7B3FE019805B000BD10B524
:103450000B48006840F08070094908600020094965
:1034600048600846006840F001000860FFF7E7FF89
:103470000446204601F0A3FF10BD02484068704793
:10348000FCED00E0001000E00146412903DB5A2971
:1034900001DC012200E00022012A08D0612903DBBF
:1034A0007A2901DC012200E00022012A01D1012257
:1034B00000E00022104670470146412903DB5A29EB
:1034C00001DC012200E00022012A08D0612903DB8F
:1034D0007A2901DC012200E00022012A01D1012227
:1034E00000E00022012A08D0302903DB392901DC61
:1034F000012200E00022012A01D1012200E0002285
:10350000104670470146612903DB7A2901DC01225C
:1035100000E00022104670470146412903DB5A298A
:1035200001DC012200E000221046704701463029EC
:1035300003DB392901DC012200E00022104670473C
:103540000146302903DB372901DC012200E000229B
:10355000104670470146302901DB392907DD412932
:1035600001DB462903DD612903DB662901DC012239
:1035700000E00022104670470146202901D00929A9
:1035800001D1012200E000221046704701462029A7
:1035900009D00D2907D00A2905D00C2903D0092903
:1035A00001D00B2901D1012200E000221046704712
:1035B0000146202903DB7E2901DC012200E00022F4
:1035C000104670470146212903DB7E2901DC0122D8
:1035D00000E00022104670470146202903DB7E29C7
:1035E00001DC012200E00022012A35D1202909D086
:1035F0000D2907D00A2905D00C2903D0092901D0AB
:103600000B2901D1012200E000222ABB412903DB62
:103610005A2901DC012200E00022012A08D0612998
:1036200003DB7A2901DC012200E00022012A01D11A
:10363000012200E00022012A08D0302903DB3929C9
:1036400001DC012200E00022012A01D1012200E078
:1036500000220AB9012200E000221046704701460C
:103660004AB2002A01DB1F2901DD7F2901D1012295
:1036700000E00022104670470146412903DB5A2929
:1036800001DC012200E00022012A02D101F1200226
:1036900000E00A46D0B270470146612903DB7A296F
:1036A00001DC012200E00022012A02D1A1F1200266
:1036B00000E00A46D0B27047F0B504460B462046FB
:1036C000FFF7EAFF05461846FFF7E6FF0646B54254
:1036D00001D1012000E0002007463846F0BD00007F
:1036E000F748F84901600146416000218160C160EE
:1036F000016141618161C16101620163C162416235
:10370000F1498163C1634FF4D841016441640146CA
:10371000EE4A116070472DE9F04103460C4617460A
:103720000FB9BDE8F08103B9FBE70025002202E0F4
:103730002D022543521C042AFAD3384603F0030C09
:103740001946BCF1000F08D0624603E001F8014BB6
:10375000401E521C08B1042AF8D30E4601E020C6D0
:10376000001F0428FBD2314602E001F8014B401E45
:103770000028FAD100BFD4E730B505460C462246F2
:1037800000212846FFF7C7FF30BD2DE9F04F85B077
:10379000074688469146B9F1000F02D105B0BDE851
:1037A000F08F07B9FAE7B8F1000F00D1F6E7464607
:1037B0003D46AE4205D94A464146384601F0EAFB4D
:1037C000ECE74C463819451E08EB0400461EA81BC2
:1037D00004900498042834D305F00300029006F006
:1037E00003010191DDE90110884201D1012000E0CF
:1037F000002000900098012823D10298032810D0BF
:10380000029840B2039008E016F8010905F8010992
:10381000641E0398401E40B2039014B10398002820
:10382000F2DAA5F1030AA6F1030B04E05BF8040940
:103830004AF80409241F042CF8D20AF103050BF1FD
:10384000030604E016F8010905F80109641E002CBE
:10385000F8D100BFA2E72DE9F84F8046894615460A
:1038600015B90120BDE8F88FB8F1000F01D1002093
:10387000F8E7B9F1000F01D10020F3E70124294650
:1038800008EB050209EB050302F0030C03F0030B40
:10389000DC4501D1012000E00020009000980128C3
:1038A00029D1BCF1000F12D0E2460AE0521E5B1E85
:1038B000107893F800E0704500D00024491EAAF16A
:1038C000010A012C03D111B1BAF1000FEED1012C84
:1038D00011D116461F4608E0361F3F1F3068D7F843
:1038E00000E0704500D00024091F012C01D10429FB
:1038F000F2D232463B4608E0521E5B1E107893F827
:1039000000E0704500D00024491E012C01D100299F
:10391000F2D12046A6E7F0B503460D461646DA6B0F
:10392000B2FBF6F006FB102CBCF1000F02D0A6EBA8
:103930000C0400E000246119586C884201D2002078
:10394000F0BDA14201D3A94201D20020F8E75718E7
:10395000974201D20020F3E72244DF63586C401AFB
:1039600058641046ECE72DE9F04F81468C461C4622
:10397000B9FBF4F004FB109BBBF1000F02D0A4EBE9
:103980000B0600E00026B2FBF4F004FB102BBBF1A9
:10399000000F02D0A4EB0B0300E00023D018ACF121
:1039A000010E00FB0E60871806EB0208B04501D33C
:1039B000904502D20020BDE8F08FBCF1010F22D962
:1039C000D5189D4201D3954201D20020F3E7ACF116
:1039D000010000FB05F1A94203D3994201D39142B2
:1039E00001D20020E7E701EB020A8A4501D39245A4
:1039F00001D20020DFE7474503D38F4201D357456B
:103A000001D20020D7E73846D5E72DE9FE4F07461B
:103A1000884615461C46002000901CB900BF01F0E6
:103A20005BFC00BF0DB901AD00BF002028602FB9BD
:103A300042F2747020800020BDE8FE8FB8F1000FC4
:103A400004D142F2757020800020F5E7DFF8709015
:103A500000BF00BF01F0D0FD009000BF01F0C9FB26
:103A600000BFD9F83C000290D9F844B043463A462A
:103A700001210298FFF777FF064676B900BF01F0F3
:103A800099FB00BF009801F0BBFD00BF00BF2F6095
:103A900042F2E37020800020CEE75E4518D900BFD7
:103AA00001F088FB00BF009801F0AAFD00BF00BF35
:103AB000A6EB0B00286042F2E27020800020BBE7FA
:103AC00024400020484541506C4000204800002020
:103AD000424639464846FFF71EFF8246BAF1000FBC
:103AE0000ED100BF01F066FB00BF009801F088FD19
:103AF00000BF00BF2E6042F2E270208000209BE7F2
:103B000000BF01F057FB00BF009801F079FD00BF36
:103B100000BF42F21070208050468DE72DE9FC5F17
:103B200006460D461446002000901CB900BF01F067
:103B3000D3FB00BF2DB942F2757020800020BDE894
:103B4000FC9FB5F5805F04D942F27570208000209B
:103B5000F5E726B942F2117020800020EFE700BFA0
:103B600000BF01F049FD009000BF01F042FB00BF23
:103B7000FC493068084440B1FB49084418B1FB498E
:103B8000084408B900BF0EE000BF00BF01F012FBFF
:103B900000BF009801F034FD00BF00BF42F2887002
:103BA00020800020CBE700BFD6F80490D9F8380079
:103BB00008B1484600E0EE488246DAF84470DAF888
:103BC0003CB000BF01F0F6FA00BF009801F018FD0C
:103BD00000BF00BF012D0DD9BBFBF5F005FB10B8F0
:103BE000B8F1000F02D0A5EB080000E00020019022
:103BF00001983F1A42F21070208038469FE770B556
:103C000004460D462A462146D948FFF787FF064657
:103C1000304670BD70B504460D461DB900BF01F0B9
:103C20005BFB00BF1CB942F21170288070BDCD480B
:103C30004042206000206060A060E0602061606120
:103C4000A061E0612062A06260632063E062606264
:103C5000A063E0632064606442F21070288000BFBB
:103C6000E4E72DE9FF4F91B00446DDE920950020FF
:103C700000901DB900BF01F02FFB00BFB9F1000F8C
:103C800002D10DF1100900BF0020C9F8000029463B
:103C90002046FFF7BFFF288842F21071884202D009
:103CA00015B0BDE8F08F129828B1139818B942F2F8
:103CB0007E702880F4E7149818B942F29270288038
:103CC000EEE71E9818B942F293702880E8E71F9833
:103CD00018B942F294702880E2E7A648006818B943
:103CE00042F2E7702880DBE7A14810904FF0000A0D
:103CF00000BF00BF01F080FC009000BF01F079FA26
:103D000000BF1298002863D1109E109E0E96109E40
:103D10003746109EF06B0B9004231A4614990B98AB
:103D2000FFF721FE0390039860B900BF01F042FA4B
:103D300000BF009801F064FC00BF00BF42F2E370D6
:103D40002880ADE703990B9808440A90DDE91E230B
:103D500014990A98FFF707FE8346BBF1000F0CD1B8
:103D600000BF01F027FA00BF009801F049FC00BF36
:103D700000BF42F2E370288092E7039800EB0B0A41
:103D80000398824501D3DA450CD200BF01F012FA44
:103D900000BF009801F034FC00BF00BF42F2E370A6
:103DA00028807DE71098D0F84480C2457ED900BFB6
:103DB00001F000FA00BF009801F022FC00BF00BF34
:103DC000AAEB0800C9F8000042F2E270288067E719
:103DD00012980990DDE912010844401E0890DDE9BF
:103DE000081081420CD200BF01F0E4F900BF009836
:103DF00001F006FC00BF00BF42F2977028804FE739
:103E0000002600200E905B4807683CE0B96B1298D2
:103E1000814205D1396C1398814201D13E4634E08C
:103E2000B86B0790396CB86B0844401E0690DDE90A
:103E30000701814200D228E007990998884203D8F7
:103E4000DDE9071088420FD207990998884203D309
:103E500006990898884207D906990998884210D887
:103E60000699089888420CD300BF01F0A3F900BF5F
:103E7000009801F0C5FB00BF00BF42F27F702880B0
:103E80000EE70E97FF68002FC0D100BF46B9264647
:103E90001298A0631298E0631398206413986064EA
:103EA0001098C06B0B9004231A4600E064E014994C
:103EB0000B98FFF758FD0390039860B900BF01F01D
:103EC00079F900BF009801F09BFB00BF00BF42F2F0
:103ED000E3702880E4E61098D0F8448003984045C9
:103EE00011D900BF01F066F900BF009801F088FB0E
:103EF00000BF00BF0398A0EB0800C9F8000042F221
:103F0000E2702880CCE6F06B0A90DDE91E2314995C
:103F10000A98FFF728FD8346BBF1000F0CD100BFC4
:103F200001F048F900BF009801F06AFB00BF00BF34
:103F300042F2D9702880B3E6D6F84480C3451BD935
:103F400000BF01F037F900BF009801F059FB00BF36
:103F500000BFABEB0800C9F8000042F2D87028801F
:103F60009EE60000B2B0B1BAFEFFFEF8080A0EFCF1
:103F70002440002048000020149880000290042271
:103F800002991098FFF7C7FC0D900D9838BB109858
:103F9000D0F8448000BF01F00DF900BF009801F097
:103FA0002FFB00BF00BF129848B9C24504D9AAEB45
:103FB0000800C9F800000EE0C9F800A00BE0029864
:103FC000404505D90298A0EB0800C9F8000002E0BE
:103FD0000298C9F8000042F2E270288060E60020F2
:103FE000019034E03046DDE91E12FFF794FC0C909E
:103FF0000C9820BBF06B0A90D6F8448000BF01F00B
:10400000D9F800BF009801F0FBFA00BF00BF01998A
:104010001498401A0590DDE91E2305990A98FFF7C8
:10402000A2FC8246C24504D9AAEB0800C9F80000E8
:1040300001E0C9F800A042F2D870288030E6019A69
:10404000DDE90C0141F822000198401C019014990F
:1040500001988842C6D3A6420CD10E98A060E760B2
:104060000E9810B10E98C46001E0FB4804605FB187
:10407000BC6009E070690F9026610F9860617461FF
:104080000F9808B10F980461F448206066600A98A0
:10409000A0610A985844401EE0610D982062C4F85F
:1040A00028B01F9860631E9820631498E0621498EB
:1040B000606200BF01F07EF800BF009801F0A0FA36
:1040C00000BF00BF42F21070288000BFE8E52DE974
:1040D000F04105460C4600271CB900BF01F0FCF872
:1040E00000BF2DB942F2117020800020BDE8F081A0
:1040F00000BF00BF01F080FA074600BF01F079F869
:1041000000BFD7492868084440B1D649084418B1CF
:10411000D549084408B902E00FE000BF00BF00BF66
:1041200001F048F800BF384601F06AFA00BF00BF4E
:1041300042F2887020800020D8E700BF6E6A00BF7E
:1041400001F038F800BF384601F05AFA00BF00BF4E
:1041500042F2107020803046C8E72DE9F041044655
:104160000E4615464FF000081DB900BF01F0B4F827
:1041700000BF2CB942F2117028800020BDE8F08108
:1041800026B942F2937028800020F7E700BF00BFF5
:1041900001F032FA804600BF01F02BF800BFAF49B2
:1041A000206888420DD000BF01F004F800BF4046EF
:1041B00001F026FA00BF00BF42F28870288000207C
:1041C000DCE7206BB0420DD200BF00F0F3FF00BF70
:1041D000404601F015FA00BF00BF42F293702880FC
:1041E0000020CBE7606A68B900BF00F0E3FF00BFC2
:1041F000404601F005FA00BF00BF42F2DE702880A1
:104200000020BBE7E16A606A88420DD900BF00F078
:10421000D1FF00BF404601F0F3F900BF00BF42F2FA
:10422000957028800020A9E7606A401E6062D4E98A
:10423000080150F8217000BF00F0BCFF00BF4046ED
:1042400001F0DEF900BF00BF42F21070288038464E
:1042500094E72DE9F04704460F4615464FF0000954
:104260001DB900BF01F038F800BF2CB942F211703F
:1042700028800020BDE8F08700BF00BF01F0BCF936
:10428000814600BF00F0B5FF00BF74492068884236
:104290000DD000BF00F08EFF00BF484601F0B0F91E
:1042A00000BF00BF42F2887028800020E2E7E16A88
:1042B000606A88420DD300BF00F07CFF00BF484613
:1042C00001F09EF900BF00BF42F2957028800020E7
:1042D000D0E7E06AC01B461EE06AB0420DD800BFBE
:1042E00000F068FF00BF484601F08AF900BF00BF38
:1042F00042F2957028800020BCE7606AB0420DD978
:1043000000BF00F057FF00BF484601F079F900BF39
:1043100000BF42F2957028800020ABE7206A50F879
:10432000268000BF00F046FF00BF484601F068F954
:1043300000BF00BF42F21070288040469AE72DE986
:10434000F04F02460C469569D2F81CB0AC4201D33E
:104350005C4502D90020BDE8F08F536BB5FBF3F04C
:1043600003FB105111B1A3EB010C01E04FF0000C65
:10437000176BB7FBF3F003FB107109B15E1A00E095
:10438000002605EB0C08A4EB080A07EB0609BAFBAC
:10439000F9F009FB10A008B9012000E000208646D2
:1043A0007046D8E72DE9F04704460F4615464FF012
:1043B000000A1DB900BF00F08FFF00BF24B942F210
:1043C00011702880BDE8F0871FB942F21170288073
:1043D000F8E700BF00BF01F00FF9824600BF00F010
:1043E00008FF00BF1D49206888420CD000BF00F0C4
:1043F000E1FE00BF504601F003F900BF00BF42F2EA
:1044000088702880DEE739462046FFF798FF80460F
:10441000B8F1010F0CD000BF00F0CCFE00BF504639
:1044200001F0EEF800BF00BF42F297702880C9E7A4
:1044300000261CE0206A50F82600B84216D100BFC2
:1044400000F0B8FE00BF504601F0DAF800BF00BF30
:1044500042F298702880B5E748000020504F4F4C3A
:10446000B2B0B1BAFEFFFEF8080A0EFC761C606A14
:10447000B042DFD8E16A606A88420CD300BF00F026
:1044800099FE00BF504601F0BBF800BF00BF42F2EA
:10449000DD70288096E74FF00008666A08E0206A21
:1044A00050F82690B94502D14FF0010803E0761C80
:1044B000E06AB042F3D800BFB8F1010F07D1D4E9E8
:1044C000080150F82100216A41F826000CE000BFE5
:1044D00000F070FE00BF504601F092F800BF00BF30
:1044E00042F2887028806DE7D4E9080140F8217015
:1044F000606A401C606200BF00F05CFE00BF504676
:1045000001F07EF800BF00BF42F21070288000BFAB
:1045100058E72DE9F84F04460F4615460020009055
:104520004FF0FF3B1DB900BF00F0D6FE00BF2CB915
:1045300042F2117028805846BDE8F88F27B942F240
:10454000117028805846F7E700BF00BF01F054F80B
:10455000009000BF00F04DFE00BF43492068884234
:104560000DD000BF00F026FE00BF009801F048F813
:1045700000BF00BF42F2887028805846DCE7394609
:104580002046FFF7DCFE8046B8F1010F0DD000BFDA
:1045900000F010FE00BF009801F032F800BF00BF2D
:1045A00042F2977028805846C6E7002613E0206A3A
:1045B00050F82600B8420DD100BF00F0FBFD00BF4F
:1045C000009801F01DF800BF00BF42F298702880EB
:1045D0005846B1E7761C606AB042E8D8E16A606A82
:1045E00088420DD300BF00F0E5FD00BF009801F048
:1045F00007F800BF00BF42F2DD70288058469BE7F5
:104600004FF00008666A08E0206A50F82690B94525
:1046100002D14FF0010803E0761CE06AB042F3D803
:1046200000BFB8F1010F11D1E06A401EA0EB060AED
:1046300000BF00F0BFFD00BF009800F0E1FF00BF29
:1046400000BF42F210702880504675E700BF00F0AE
:10465000B1FD00BF009800F0D3FF00BF00BF42F2E1
:1046600088702880584667E7504F4F4C10B5024677
:104670000B461146002001E0491C401C19B10C7882
:104680000CB19842F8D310BD30B504464FF0FF315D
:104690002046FFF7EBFF0546284630BD70B50446BF
:1046A0000D4616460CB9002070BD0DB90020FBE781
:1046B00021462A46002304E010780870491C521C49
:1046C0005B1C21B11AB1107808B1B342F4D301B127
:1046D0000AB90020E8E7B34201D200200870204662
:1046E000E2E770B504460D464FF0FF3229462046FA
:1046F000FFF7D4FF0646304670BD70B503460C4642
:1047000015460BB9002070BD0CB90020FBE70DB9B0
:104710001846F8E7194600E0491C11B1087800284E
:10472000FAD109B90020EEE72246002604E010780D
:104730000870491C521C761C21B11AB1107808B1BE
:10474000AE42F4D301B10AB90020DCE700200870C2
:104750001846D8E770B504460D464FF0FF3229469B
:104760002046FFF7CAFF0646304670BD2DE9F043EC
:1047700005460B469446BCF1000F02D10020BDE86F
:10478000F08335B90BB90020F9E71878424210469A
:10479000F5E713B92A781046F1E729461C460F467B
:1047A00026467F1C761C4FF0000805E0491C641C5F
:1047B0007F1C761C08F10108087894F800904845A1
:1047C00005D1087818B117B10EB1E045EED3E04538
:1047D00001D10020D3E7087894F80090484505D02F
:1047E000087894F80090A0EB09020BE0087808B96B
:1047F000002207E02FB90EB9002203E030784242D0
:1048000000E03A781046BAE770B504460D464FF01E
:10481000FF3229462046FFF7A9FF0646304670BD05
:104820002DE9F74F82B080460E46049818B9002053
:1048300005B0BDE8F08FB8F1000F09D10EB9002026
:10484000F6E73078FEF718FF07467C422046EFE790
:104850003EB998F80000FEF70FFF05462C462046AB
:10486000E6E7C146B246C846C3465646CDF804A060
:10487000D8460BF1010B019E701C0190C84699F8B7
:104880000000FEF7F9FE054656469AF80000FEF7CE
:10489000F3FE07460020009015E009F101090AF136
:1048A000010A0BF1010B0198401C01900098401C7B
:1048B000009099F80000FEF7DFFE05469AF8000028
:1048C000FEF7DAFE0746BD420BD199F8000040B171
:1048D000BBF1000F05D0019818B1049900988842E7
:1048E000DBD304990098884201D10020A0E7BD42A3
:1048F00001D0EC1B16E00DB9002413E0BBF1000F52
:104900000AD1019808B900240CE001990878FEF753
:10491000B3FE07467C4205E09BF80000FEF7ACFEC4
:1049200005462C46204683E770B504460D464FF0F9
:10493000FF3229462046FFF773FF0646304670BD1A
:1049400030B504460B4615460CB9002030BD0BB9F6
:104950000020FBE72146002201E0491C521C31B136
:10496000087820B10878A84201D09A42F5D309B955
:104970000020EBE79A4201D30020E7E70878A8423D
:1049800001D00020E2E70846E0E770B505460C4696
:1049900022464FF0FF312846FFF7D2FF0646304649
:1049A00070BD2DE9F04305460E46174615B90020A7
:1049B000BDE8F0830EB90020FAE72C46A6F1010904
:1049C00049462046FFF752FE804644440CB9002079
:1049D000EEE700E0641EAC4202D02078B842F9D184
:1049E0002078B84201D00020E2E72046E0E770B529
:1049F00005460C4622464FF0FF312846FFF7D1FF0F
:104A00000646304670BD70B504460D4616460CB9D4
:104A1000002070BD0BB90020FBE721461A4605E0D7
:104A20000878A84200D10E70491C521E19B10878AE
:104A300008B1002AF4D12046EBE7F0B504460D4654
:104A400016464FF0FF33324629462046FFF7DBFF7C
:104A500007463846F0BD2DE9FF4F06460F4615467E
:104A60001EB9002004B0BDE8F08F0FB90020F9E7AF
:104A70000DB90020F6E7681C00B101E04FF0FF30EF
:104A8000039029463046FFF7F1FD804638460399EA
:104A9000FFF7ECFD04460CB93046E3E7444501D985
:104AA0000020DFE706EB080BBBF1000F01D100206F
:104AB000D8E707EB040BBBF1000F01D10020D1E7D1
:104AC000A8EB040002904FF000090020019000BF05
:104AD00006EB09000090224639460098FFF746FE93
:104AE0008246BAF1000F01D1012000E000200190C0
:104AF00009F10109019810B902988145E8D9BAF184
:104B0000000F01D00020ADE70098ABE770B5044678
:104B10000D464FF0FF3229462046FFF79CFF064620
:104B2000304670BD2DE9FF4F8DB00F4615461A9ED9
:104B30001D9818B9002011B0BDE8F08F0020039037
:104B4000012F01DA01200390022D01D3242D01D978
:104B50000120039096B33046FEF72AFD029002989A
:104B6000012802D00120039028E0302E26D0A6F1A3
:104B70003000C0B207901B98012804D0A6F1410074
:104B8000C0B2069003E0A6F16100C0B206900A2D03
:104B900002D80798A84209DB0A2D09D907980A28E4
:104BA00004D3A5F10A000699884201D9012000E04A
:104BB000002005900598012800D103901D9C0398C2
:104BC000002846D1DDF834A0DDF834A0CDF830A0BF
:104BD00001200B9007E00B98401CC0B20B900C9882
:104BE000B0FBF5F00C900C98A842F4D21098012874
:104BF00000D100E0002009900B9909980844B842C0
:104C000025DC002001900B98B84201DA0B9800E0F7
:104C100038460A903EB1B8460A98391A0998081AD7
:104C2000C0B2089006E0DDE90910084400F0FF0872
:104C3000002008900898002806DD302E01D10120C0
:104C400000E00020049004E00020049001E0012036
:104C50000390039800B1B84644441C9808B1002062
:104C60002070641E4FF0000941E00398A8BBBAF120
:104C7000000F02D1B9F1000F1CD1BAFBF5F005FB12
:104C800010A000F0FF0BBBF10A0F04D20BF13000B3
:104C900004F801090BE01B98012804D00BF1370040
:104CA00004F8010903E00BF1570004F80109BAFB0D
:104CB000F5FA1AE01098012810D1049808B9019863
:104CC00028B1049850B1A8F10100484506D12D2023
:104CD00004F801090120019007E003E02EB104F877
:104CE000016902E03F2004F8010909F10109C14509
:104CF000BBD3039808B100201DE71D981BE72DE9E1
:104D0000FF5F05460E4617461C46DDE90F9ADDF8A3
:104D1000388000233A46314628468DE81007FFF7D1
:104D200001FF8346584604B0BDE8F09F2DE9FF4FD0
:104D300085B0044689461F46DDE913AB002C02DA34
:104D40006542012601E02546002612983346CDE94A
:104D500002ABCDE9007049462846079AFFF7E2FE0C
:104D60008046404609B0BDE8F08F2DE9FF4F8BB07B
:104D7000064689461546B9F1000F02D10DF1240906
:104D800000BFC9F80060189810B907A8189000BFB4
:104D90000021189801701EB900200FB0BDE8F08FF7
:104DA000012D01D0242D01D90020F6E734462078CA
:104DB000FEF7ECFB039004E0641C2078FEF7E6FBB2
:104DC000039003980128F7D020782B2802D02D28B3
:104DD0000BD103E0641C4FF0000B09E00E98012892
:104DE00000D1641C4FF0010B02E04FF0000B00BF3C
:104DF00000BF0A9425B1082D1CD0102D36D11EE01D
:104E00002078302814D1641C2078582802D07828C3
:104E10000BD100BF102567783846FEF79BFB824612
:104E2000BAF1010F00D1641C01E0082500BF00E0C9
:104E30000A251CE02078302800D1641C17E0207877
:104E4000302812D1641C2078582802D078280AD142
:104E500000BF67783846FEF77DFB8246BAF1010F46
:104E600000D1641C00E000BF00BF00E000BF00BF35
:104E70004FF0000800200290019040E0277838466B
:104E8000FEF71AFB05900598012836D13846FEF743
:104E90004DFB06900698012804D1A7F13000C0B25E
:104EA00008900FE03846FEF72DFB04900498012887
:104EB00004D1A7F15700C0B2089003E0A7F1370072
:104EC000C0B208900898A84214DA029880B9304815
:104ED00050F82500404509D308FB05F808988044A0
:104EE0000898804504D20120029001E00120029040
:104EF000641C04E00120019001E001200190019870
:104F00000028BBD00298012801D14FF0FF380A9841
:104F1000844202D0C9F8004001E0C9F80060189846
:104F200080F800B0404638E7F8B504460D4616460E
:104F3000002003463246294600902046FFF715FF21
:104F400007463846F8BD2DE9FC4105460E46174692
:104F500001A801233A46314600902846FFF705FF95
:104F600004469DF8040040B9B4F1004F02D36FF03D
:104F7000004000E02046804607E0B4F1004F02D335
:104F80004FF0004000E0604280464046BDE8FC81B2
:104F900068000108002800D17047002900D170473F
:104FA000002A00D170472DE9F81F00F0030301F03B
:104FB0000304A34211D1C3F1040303F00303012B43
:104FC0001DD3012A00D2F2E011F8014B00F8014B89
:104FD000A3F10103A2F10102F1E700F0010301F0E6
:104FE0000104A34200D094E0012B44D311F8014BFB
:104FF00000F8014BA3F10103A2F10102F4E7B2F5BD
:10500000B47F26D3B1E8F81FA0E8F81FB1E8F81F75
:10501000A0E8F81FB1E8F81FA0E8F81FB1E8F81FF2
:10502000A0E8F81FB1E8F81FA0E8F81FB1E8F81FE2
:10503000A0E8F81FB1E8F81FA0E8F81FB1E8F81FD2
:10504000A0E8F81FB1E8F81FA0E8F81FA2F5B472B5
:10505000D5E7282A06D3B1E8F81FA0E8F81FA2F187
:105060002802F6E7042A06D351F8043B40F8043B33
:10507000A2F10402F6E7202A42D331F8023B20F8DD
:10508000023B31F8023B20F8023B31F8023B20F8AA
:10509000023B31F8023B20F8023B31F8023B20F89A
:1050A000023B31F8023B20F8023B31F8023B20F88A
:1050B000023B31F8023B20F8023B31F8023B20F87A
:1050C000023B31F8023B20F8023B31F8023B20F86A
:1050D000023B31F8023B20F8023B31F8023B20F85A
:1050E000023B31F8023B20F8023B31F8023B20F84A
:1050F000023B31F8023B20F8023BA2F12002BAE762
:10510000022A06D331F8023B20F8023BA2F1020248
:10511000F6E7102A42D311F8013B00F8013B11F8E1
:10512000013B00F8013B11F8013B00F8013B11F88D
:10513000013B00F8013B11F8013B00F8013B11F87D
:10514000013B00F8013B11F8013B00F8013B11F86D
:10515000013B00F8013B11F8013B00F8013B11F85D
:10516000013B00F8013B11F8013B00F8013B11F84D
:10517000013B00F8013B11F8013B00F8013B11F83D
:10518000013B00F8013B11F8013B00F8013B11F82D
:10519000013B00F8013BA2F11002BAE7012A06D355
:1051A00011F8013B00F8013BA2F10102F6E7BDE86E
:1051B000F81F704710B5FB480088401EF949088069
:1051C00008460088A0B9FEF758F9F7490860084674
:1051D0000068F6490968441AF5480068A04201D2FF
:1051E000F3480460F3480068A04201D2F14804602B
:1051F00010BD10B5F0480088401CEF490880E94810
:10520000008818B9FEF739F9E8490860E5480088D0
:10521000401CE449088010BD10B5002400BF00BF49
:1052200000F0EAF9044600BFFFF7E3FF00BF1021DA
:10523000E248FEF7A1FA00BFFFF7BCFF00BF20461F
:1052400000F0DEF900BF00BF10BD10B5FFF7E4FFAE
:1052500010BD70B500260020D7490880D1490880CC
:10526000D2490860D0490860D1490860D149086036
:10527000D3490860002400BF00F0BEF9064600BF15
:1052800000250BE00020CA490860FFF7B2FFFFF7D6
:1052900091FFC74800680444681C85B2002DF1D016
:1052A000C74804600020C2490860C249086000BFC6
:1052B000304600F0A5F900BF70BD10B50020C1490F
:1052C0000860FEF7C4F810BD10B5FFF7F6FFFFF752
:1052D000C0FFFFF7BAFF10BD00BFFEE770B505467F
:1052E0000C46002614B900BFFFF7F6FF15B90A20D7
:1052F000208070BD00BF00BF00F07EF9064600BFF1
:10530000FFF777FF00BF1022AC492846FFF7C6F928
:1053100000BFFFF74FFF00BF304600F071F900BF3C
:1053200000BF0020208000BFE3E72DE9F0410546E3
:105330000C46002714B900BFFFF7CEFF1DB90A20A5
:105340002080BDE8F08110212846FFF78FF906463E
:10535000102E19D200BF00BF00F04EF9074600BF63
:10536000FFF747FF00BF102229469448FFF796F940
:1053700000BFFFF71FFF00BF384600F041F900BF34
:1053800000BF0020208002E04FF47A70208000BF30
:10539000D7E710B5FEF771F80446204610BD7047F8
:1053A00000B5014611B900BFFFF796FF854A1068A6
:1053B00008B1002201E04FF4FA620A8000BD814981
:1053C00008607047014608467D4A1268904203D93A
:1053D0007B4A1268801A00E00020704770B50025F3
:1053E00000BF00F009F9054600BF7148046800BF1E
:1053F000284600F005F900BF2046FFF7E3FF064608
:10540000304670BD70B50025FFF7E8FF044600BFC9
:1054100000F0F2F8054600BF00206549086000BFB3
:10542000284600F0EDF800BF204670BD70B500259D
:1054300000BF00F0E1F8054600BF5E48046800BF09
:10544000284600F0DDF800BF2046FFF7BBFF064608
:10545000304670BD70B50546284600F0D8F80446C1
:10546000183C204670BD70B50546284600F0CFF8C0
:105470000446103C204670BD70B50546284600F035
:10548000C6F8044600BF204670BD30B502460B4644
:105490000024D2F1FF359C4126D24FF6FF74D2F1A1
:1054A000FF359C410FD26FF07F44D2F1FF359C4114
:1054B00003D2190E444C605C44E0190C424C645C0D
:1054C00004F108003EE0FF24D2F1FF359C4105D2F3
:1054D000190A3D4C645C04F1100033E019463A4C63
:1054E000645C04F118002DE04FF6FF750024AD1A3E
:1054F0009C4115D26FF07F450024AD1A9C4107D224
:10550000140E44EA0321304C645C04F1200019E0DD
:10551000140C44EA03412C4C645C04F1280011E0B3
:105520000024D2F1FF059C4107D2140A44EA03612A
:10553000254C645C04F1300004E01146224C645CAC
:1055400004F1380030BD70B504460CB9082070BDB8
:10555000204600F05FF805462846F8E770B5044697
:105560000CB9102070BD204600F054F805462846BE
:10557000F8E770B504460CB9202070BD204600F055
:1055800049F805462846F8E72DE9F04304460D465C
:10559000002184EA01006940084317D14020BDE89A
:1055A000F08300005200002058000020540000202A
:1055B0006000002064000020500000206CAC00203F
:1055C0005C0000204C000020FC000108E243E8439E
:1055D000521C40F1000102EA040601EA05073046C8
:1055E0003946FFF752FF8046C8F13F094846D6E7E3
:1055F00072B6704762B67047EFF3108072B67047AC
:1056000080F31088704730BF704720BF7047B0FAF2
:1056100080F0704790FAA0F0B0FA80F0704790FAEE
:10562000A0F0704770470000002400BF1DE000BFDD
:1056300000BFFFF7E1FF044600BFFFF7DAFD00BF40
:10564000FA480068401CF9490860F9480068401CA5
:10565000F749086000BFFFF7ADFD00BF2046FFF728
:10566000CFFF00BF00BF08F07BF9E0E710B58AB0BC
:1056700004460020ED4908600B2000210591CDE98A
:10568000070406910846EB490968EB4A1268EB4BA0
:105690001B68CDE90132CDE903101F200023AFF2D2
:1056A0007702E7A10090EB4805F013F90AB010BDAE
:1056B00000210AE001EB4102E74B03EB82000022EC
:1056C0000281026042604A1CD1B22029F2D37047A5
:1056D00070B5044608F04CF90020E0490870E04934
:1056E0000870E0490870E0490860E0490860E04956
:1056F0000870E0490870E0490870E0490860E04936
:105700000860E0490860E0490870E04800680A2144
:10571000B0FBF1F0DE490860DE48006858B1DE48B1
:10572000056845B1DB48066803E0761E0020286066
:105730002D1D002EF9D10020D8490860D8490860F5
:10574000D8490860D8490860D8490860D849086035
:10575000D8490860D849087003F00EFAFFF7A8FF8F
:10576000204601F054FF208800B170BD204602F0B1
:10577000BDFA208800B1F8E7204602F0C9FA208877
:1057800000B1F2E7204603F0DFF9208800B1ECE732
:10579000204603F01BFF208800B1E6E7204604F016
:1057A000B3FB208800B1E0E7204606F0C9FE208860
:1057B00000B1DAE7204602F0BEF8208800B1D4E755
:1057C0002046FFF753FF208800B1CEE7204607F0C0
:1057D00020F8208800B1C8E7204604F0A1FE208808
:1057E00000B1C2E7204608F016F8208800B1BCE7F7
:1057F00000F042FEFFF716FF00BFB6E798480078BA
:10580000012800D0704795480078FA2800DBF9E7B6
:1058100092480078401C9149087000BFF2E710B52B
:1058200000248F480078012800D010BD00BFFFF78A
:10583000E3FE044600BF8948007828B900BF20462F
:10584000FFF7DEFE00BFF0E784480078401E834982
:10585000087008460078002805DD00BF2046FFF7E5
:10586000CFFE00BFE1E77F480078002805DD00BFDC
:105870002046FFF7C5FE00BFD7E703F087F97D4953
:1058800008700846007800EB4000734951F820008A
:10589000764908600846006873490968884205D15E
:1058A00000BF2046FFF7ACFE00BFBEE76F480068B0
:1058B000D0F89000401C6D490968C1F890007F48FD
:1058C0000068401C7D4908604FF080507C490860AA
:1058D00000BF2046FFF794FE00BF00BFA5E710B54C
:1058E00000245E480078002800DD10BD5D48007887
:1058F000002800DDF9E700BFFFF77EFE044600BF89
:1059000003F044F95B4908700846007800EB40005A
:10591000514951F82000554908600846006852492D
:105920000968884205D100BF2046FFF769FE00BF25
:10593000DBE74E480068D0F89000401C4B490968EE
:10594000C1F890005D480068401C5C4908604FF059
:1059500080505B49086000BF2046FFF751FE00BF42
:1059600000BFC2E710B53F480078012803D1FDF71A
:1059700084FD4249086010BD70B5044600253748D3
:105980000078002803DD46F66250208070BD344860
:105990000078012803D045F689602080F6E7314879
:1059A0000078FA2803DB45F209202080EEE700BFEB
:1059B00000BFFFF721FE054600BFFFF71AFC00BF3E
:1059C00028480078401C27490870FFF7CBFF00BF2C
:1059D000FFF7F0FB00BF2846FFF712FE00BF00BF35
:1059E0000020208000BFD1E710B51E48007880B9A4
:1059F000FDF743FD21490968441A21480068A04287
:105A000001D21F4804601F480068A04201D21D480F
:105A1000046010BD70B504460025104800780028C9
:105A200050DD46F66550208070BD000088000020E3
:105A3000F40000200402010800020108FC01010832
:105A400075432F4F532D4949492049646C652054B3
:105A500061736B000CC10020A8C200208C000020E4
:105A600094000020DC0000203401002038010020D8
:105A7000C2000020C3000020C4000020D00000208D
:105A8000D4000020D8000020E40000205C020108BF
:105A9000E00000202C020108280201086C00002010
:105AA0007000002074000020780000207C0000209E
:105AB0008000002084000020120100200801002046
:105AC00004ED00E0FA480078012803D045F689602B
:105AD000208070BDF748007818B946F664502080E1
